:020000040800F2
:100000000050002021020008270200082B020008EF
:100010009D020008A1020008E9020008000000009B
:100020000000000000000000000000003103000894
:10003000350300080000000039030008E508000847
:100040004D0300084D0300084D0300084D03000850
:100050004D0300084D030008350C0008550C00083E
:10006000750C0008950C00084D030008B50C00083D
:100070004D0300084D030008D50C00084D0300088F
:100080004D0300084D0300084D0300084D03000810
:100090004D0300084D0300084D0300084D03000800
:1000A0004D0300084D0300084D0300084D030008F0
:1000B0004D0300084D0300084D0300084D030008E0
:1000C0004D0300084D0300084D0300084D030008D0
:1000D0004D0300087D0700084D0300084D0300088C
:1000E0004D0300084D0300084D0300080000000008
:1000F0000000000000000000000000000000000000
:1001000000000000000000005FF808F100B583B0B7
:1001100000F0AAF9304B314A1360314A1360314B79
:10012000314A32498B4204D21168196004330432D7
:10013000F7E72A4B1A682E4B9A4200D0FEE7284B6D
:100140001A682C4B9A42F9D1234B2B4A13602B4A45
:1001500013602B4B02E000221A600433294A9342B9
:10016000F9D3254B1B6813B9244B1B6803B1FEE779
:1001700000F086F9694601A800F022F9224C234BD1
:10018000E41AA4100025AC4214DC214C214BE41AE3
:10019000A4100025AC4213DC0099019802F01AFC6F
:1001A00005461D4C1D4BE41AA410002C0EDC2846FD
:1001B00000F0E2F8154B53F8253098470135E2E797
:1001C000144B53F8253098470135E3E7013C134BB6
:1001D00053F824309847E8E7BABADECA0000002096
:1001E0009C000020000000201C370008A000002018
:1001F0007856341232547698A000002078040020FB
:10020000A00000207C040020780300087803000888
:1002100078030008780300087803000878030008D2
:1002200008B5FFF773FF00BEFEE71EF0040F0CBF1A
:10023000EFF30880EFF309807146414A10472DE93A
:10024000F04182B004468846124B5E6B9F6B9D6AFC
:100250001B6B13F0020F03D00E4BDB6A002B0CDB81
:100260000D4800F0B5F8CDF800803B4632462946EF
:10027000204600F009F900BEFEE74BF6AB6100F046
:100280007DF90028ECD0034B4FF00042DA6202B057
:10029000BDE8F08100ED00E00C34000800BEFEE790
:1002A0001EF0040F0CBFEFF30880EFF309807146D6
:1002B000244A10472DE9F04182B004468846084B95
:1002C0005E6B9F6B9D6A074800F082F8CDF8008056
:1002D0003B4632462946204600F0D6F800BEFEE7EF
:1002E00000ED00E01C3400081EF0040F0CBFEFF31B
:1002F0000880EFF309807146134A10472DE9F04159
:1003000082B004468846084B5E6B9F6B9D6A074827
:1003100000F05EF8CDF800803B4632462946204684
:1003200000F0B2F800BEFEE700ED00E0283400085F
:1003300000BEFEE700BEFEE700BEFEE7704700001D
:100340003F020008B5020008FD02000800BEFEE7FB
:100350001C37000800000020A00000201C37000807
:100360000000000000000000A00000207C0400202D
:08037000000000000000000085
:10037800FEE7000008B503460C4A12685AB10B4A5A
:100388001068033323F003030344094A934206D851
:10039800064A136008BD054A06491160EFE702F0F6
:1003A80073FB0C2303604FF0FF30F3E7A400002039
:1003B800004C00207C04002001230360014B0B60EB
:1003C800704700BF040000200FB400B583B004AB31
:1003D80053F8042B01938021064802F087FB00287C
:1003E80003DD0146034800F037F803B05DF804EB7D
:1003F80004B07047AC0000202DE9F04385B00446F6
:100408000F4643560BB10E461EE0042528462146EA
:10041800ABBE0446384605B0BDE8F08314F9011BAD
:1004280004AA1A4402F8101C0133AB42F6D304AAFA
:100438001344002203F8102C4FF00408E946404604
:100448004946ABBE8046761B002EE3D03546102EBB
:1004580028BF10250023E8E708B5FFF7CDFF08BD42
:1004680008B500F0FDF8024A024B9A6008BD00BFCB
:100478000000000800ED00E008B500F019F908BD1B
:10048800F8B504460D4617461E462748FFF79CFF59
:1004980021682648FFF798FF61682548FFF794FF11
:1004A800A1682448FFF790FFE1682348FFF78CFF15
:1004B80021692248FFF788FF61692148FFF784FF17
:1004C800A1692048FFF780FFE1691F48FFF77CFF1B
:1004D8001E48FFF779FF29461D48FFF775FF1D4C99
:1004E800E16A1D48FFF770FF216B1C48FFF76CFF9E
:1004F800E16B1B48FFF768FF15F0800F0AD115F470
:10050800004F0CD11748FFF75FFF06991648FFF711
:100518005BFFF8BD39461548FFF756FFEFE7314650
:100528001348FFF751FFEDE7F032000800330008E9
:100538001033000820330008303300084033000827
:100548005033000860330008703300088033000817
:100558008C33000800ED00E09C330008AC33000841
:10056800BC330008EC330008F4330008CC3300082F
:10057800DC33000883691A888A4201D0002070475A
:100588000268033A012A03D80233836101207047C5
:100598000020704782B00023019300932C4A13680F
:1005A80043F4803313602A4B1B6803F40033009331
:1005B800019B01330193009B1BB9019BB3F5A06F0D
:1005C800F1D1234B1B6813F4003F06D0012300939D
:1005D800009B012B04D002B0704700230093F7E77B
:1005E8001C4B1A6842F010021A601A6822F00302C3
:1005F8001A601A6842F002021A60A3F580535A681A
:100608005A605A685A605A6842F480625A605A6856
:1006180022F47C125A605A6842F4E8125A601A6846
:1006280042F080721A600A4B1B6813F0007FFAD000
:10063800074B5A6822F003025A605A6842F00202D5
:100648005A60034B5B6803F00C03082BF9D1C2E72F
:10065800001002400020024008B5FFF79BFF08BDCC
:1006680008B5104B1A6842F001021A6059680E4A20
:100678000A405A601A6822F0847222F480321A60A2
:100688001A6822F480221A605A6822F4FE025A601C
:100698004FF41F029A60FFF7DFFF044B4FF0006230
:1006A8009A6008BD001002400000FFF800ED00E06D
:1006B8001F4B5B6803F00C03042B15D0082B17D0D5
:1006C8001BB11C4B1C4A1A6002E01A4B1A4A1A60EA
:1006D800174B5B68C3F30313184AD35CDAB21549A6
:1006E8000B68D3400B607047124B134A1A60EFE750
:1006F8000F4A53685268C3F38343023312F4803FAE
:100708000AD00B4A526812F4003F0BD00C4A02FB85
:1007180003F3084A1360DBE7094A02FB03F3054ABF
:100728001360D5E7044A02FB03F3024A1360CFE7DC
:10073800001002401C00002000127A000C0000206B
:1007480000093D00024AD36823F08003D360704754
:1007580000380140024AD36843F04003D360704731
:1007680000380140024AD36823F04003D360704741
:100778000038014008B5184B1B6813F0800F12D0E1
:10078800154BDB6813F0800F0DD0144B1B78144AFF
:100798001278934212D2134A1268D15C0E4A516001
:1007A80001330E4A13700C4B1B6813F0400F04D032
:1007B800094BDB6813F0400F05D108BDFFF7C2FFF6
:1007C800FFF7C8FFEFE7044A136823F040031360FC
:1007D800FFF7C8FFF1E700BF0038014030010020F3
:1007E800310100202C01002010B504460021012011
:1007F80000F0DAF80B4A136843F00103136022682B
:100808006368B2FBF3F2013A4FF0804300211960AC
:100818009A624FF6FF72DA62596201225A611961CF
:1008280010BD00BF082004E04FF08042136843F079
:100838000103136070474FF08043586A704710B542
:100848000446FFF7F8FFA04203D2001B00F58030F2
:1008580010BD001BFCE738B50546FFF7ECFF044662
:100868002046FFF7ECFFA842FAD338BD10B504467E
:1008780004E04FF47A70FFF7EEFF013C002CF8D14A
:1008880010BD00000F4A136823F00103136043787A
:100898005BB1136843F00403136003785BB9094A3A
:1008A800136823F0020313607047064A136823F0A5
:1008B80004031360F1E7034A136843F0020313606B
:1008C800704700BF10E000E0034B1A6822F00102F5
:1008D8001A6000229A60704710E000E008B5064BE5
:1008E8001B6823B19847054B1B78012B00D008BD26
:1008F800FFF7EAFFFBE700BF3401002038010020C2
:10090800124B1A6822F400421A601A6822F4006234
:100918001A601A6842F400721A601A6842F4807207
:100928001A601A6822F080021A601A6822F002021D
:100938001A601A6822F001021A601A6842F004026A
:100948001A601A6842F040021A607047003001408D
:1009580000E000BF084B9B6813F0020FF9D0064B6C
:10096800D86000E000BF044B9B6813F0010FF9D07A
:10097800014BD86880B2704700300140094A1368BB
:1009880043F001031360074B1B6813F0020FFAD002
:10099800044B5A6822F002025A605A6822F0010297
:1009A8005A6070470010024001280BD010B102288D
:1009B80010D070470B484369012202FA01F119432C
:1009C800416170470748C369012202FA01F11943DE
:1009D800C161704703488369012202FA01F1194392
:1009E800816170470010024010B44409064951F86B
:1009F800243000F01F00012202FA00F0184341F8E9
:100A0800240010BC704700BF00E100E010B44309A7
:100A1800064C203354F8232000F01F00012101FA6E
:100A280000F0104344F8230010BC704700E100E0D8
:100A3800012A07D0002A3DD101282AD000B3022874
:100A480030D0704701280BD010B1022810D0704761
:100A58001948C368012202FA01F11943C1607047BD
:100A68001648C368012202FA01F11943C1607047B0
:100A78001348C368012202FA01F11943C1607047A3
:100A88000D48C368012202FA01F123EA0101C1609D
:100A980070470A48C368012202FA01F123EA0101FA
:100AA800C16070470648C368012202FA01F123EACF
:100AB8000101C160704700BF00080140000C0140FF
:100AC8000010014038B50446417801F00705AD0033
:100AD800827852B1032A08D0037903B90223012A84
:100AE80015D0022A19D0002321E0032A1ED06379E9
:100AF80043B3012B05D000222078FFF799FF082384
:100B080015E001222078FFF793FF08230FE0E27831
:100B1800012A0CD143F0040309E0E278012A02D04B
:100B280043F0080303E043F00C0300E000232278BD
:100B3800012A19D042B1022A15D16278072A1CD994
:100B48000F4A05E00423F2E76278072A11D90D4A13
:100B580011680F20A84021EA00011160116803FA0A
:100B680005F50D43156038BD6278072A03D9064A92
:100B7800EEE7064AECE7064AEAE7064AE8E700BF76
:100B88000410014004080140040C01400008014021
:100B9800000C014000100140024B4FF0FF325A6137
:100BA800704700BF000401400F2806D803490B68AE
:100BB800012202FA00F0184308607047000401405F
:100BC8000F2827D801290FD011B1022918D0704752
:100BD800114B9968012202FA00F001439960DA6822
:100BE80022EA0000D86070470B4BD968012202FA4C
:100BF80000F00143D9609A6822EA000098607047C3
:100C0800054A9168012303FA00F001439160D36813
:100C18001843D060704700BF000401400F2902D874
:100C2800014B43F8210070473C01002008B5054BF3
:100C38001B6803B19847044A536943F001035361A1
:100C480008BD00BF3C0100200004014008B5054B69
:100C58005B6803B19847044A536943F00203536140
:100C680008BD00BF3C0100200004014008B5054B49
:100C78009B6803B19847044A536943F004035361DE
:100C880008BD00BF3C0100200004014008B5054B29
:100C9800DB6803B19847044A536943F0080353617A
:100CA80008BD00BF3C0100200004014008B5054B09
:100CB8001B6803B19847044A536843F00F03536015
:100CC80008BD00BF7C0100200000024008B5054BAC
:100CD800DB6803B19847044A536843F00F03536035
:100CE80008BD00BF7C0100200000024030B483082A
:100CF8000A4A023352F8234000F0030080000F250F
:100D0800854024EA050442F8234052F823408140F4
:100D1800214342F8231030BC704700BF0000014057
:100D280010B5154C012261782078FFF781FE642008
:100D3800FFF791FD002261782078FFF779FE012006
:100D4800FFF789FD012261782078FFF771FE6420A2
:100D5800FFF781FD002261782078FFF769FE6420A3
:100D6800FFF779FD012261782078FFF761FE78208E
:100D7800FFF77CFD10BD00BF2800002010B5044619
:100D8800044B012259781878FFF752FE2046FFF7E6
:100D9800DFFD10BD2000002010B50446044B0022E2
:100DA80059781878FFF744FE2046FFF7D1FD10BDAB
:100DB8002000002008B50D48FFF784FE0C48FFF717
:100DC80081FEFFF79DFDFFF7ABFF1120FFF7E4FF62
:100DD8000F20FFF74BFD3A20FFF7DEFF0520FFF756
:100DE800CDFF2920FFF7D8FF08BD00BF280000204D
:100DF8002000002038B505460C460A4B18800A4BDF
:100E080019802A20FFF7C8FF0020FFF7B7FFE8B2D4
:100E1800FFF7B4FF0020FFF7B1FFE0B2FFF7AEFF26
:100E280038BD00BF9A0100209801002038B505465A
:100E38000C460A4B18800A4B19802B20FFF7ACFF91
:100E48000020FFF79BFFE8B2FFF798FF0020FFF7AD
:100E580095FFE0B2FFF792FF38BD00BF9E0100206A
:100E68009C010020F8B506460F4B1D880F4B1B88C8
:100E7800EB1A0F4A15880F4A1288AD1A013503FB81
:100E88000555ADB22C20FFF787FF370A002407E08D
:100E98003846FFF773FFF0B2FFF770FF0134A4B2D2
:100EA800AC42F5D3F8BD00BF980100209A0100209C
:100EB8009C0100209E01002010B504467F210020DF
:100EC800FFF798FF9F210020FFF7B0FF2046FFF7AC
:100ED800C9FF10BD70B50D4614461E46531E9BB281
:100EE8009E2B01D99F2400250146FFF783FF214649
:100EF8002846FFF79BFF3046FFF7B4FF70BD38B5B3
:100F0800044608461D46531E9BB27E2B01D97F22FC
:100F180000201146FFF76EFF21462046FFF786FFA7
:100F28002846FFF79FFF38BD2DE9F04F83B00546EF
:100F3800894616460193BDF8303000939DF8381065
:100F48009DF83C3009F1FF3292B27E2A02D94FF067
:100F58007F090025019A013A92B29E2A02D99F225E
:100F680001920026A9EB05088B4698FBF1F85FFA79
:100F780088F8019CA71B9A4697FBF3F7FFB24946EE
:100F88002846FFF737FF21463046FFF74FFFBDF8E9
:100F98003400FFF767FF002409E004FB0850009BBA
:100FA800019A314680B2FFF795FF0134E4B20BF1A4
:100FB80001039C42F1DB002409E004FB0760009B6D
:100FC8004A46294680B2FFF79AFF0134E4B20AF193
:100FD80001039C42F1DB03B0BDE8F08F2DE9F04F2F
:100FE80087B08046894605920493BDF84030039344
:100FF8009DF844300293A2F12003DBB25E2B01D9A5
:101008002023059300261AE0BDF8084006FB04F5E6
:10101800ADB24D44ADB204EB080189B2013989B2D1
:101028004046FFF7E7FE611989B2013989B22846BF
:10103800FFF7FCFE0398FFF715FF013676B2072E7F
:10104800E2DD042730E0039B0193CBF10500BDF8F6
:10105800085000FB05F080B2404480B2C4F1070498
:1010680004FB05F4A4B24C44A4B2291889B201398E
:1010780089B2FFF7BFFE291989B2013989B2204622
:10108800FFF7D4FE0198FFF7EDFE013E76B2002E81
:1010980008DB34464AFA06F313F0010FD3D0049B59
:1010A8000193D2E77B1E5FB2002F0ADB059B203B32
:1010B800BB4603EB8303044A134413F807A007262F
:1010C800E5E707B0BDE8F08F383400082DE9F04FA8
:1010D80083B0BDF830709DF8346082B30D469846F1
:1010E8001446002301E001339BB2E256002AFAD1EC
:1010F8001FFA86F903FB09F303EB43034FEA430B9B
:101108001FFA8BFB83441FFA8BFBDA460DE0A9EB31
:1011180089014B009A441FFA8AFA019600974346C0
:1011280029465046FFF75AFF013494F9002032B19E
:101138000A2AECD105EBC905ADB2DA46F4E703B0EB
:10114800BDE8F08F01288CBF002001207047000007
:10115800044A1178044B585C52789B5C43EA00209F
:10116800704700BFA00100201036000810B50446E3
:1011780000F060F8002304E0064A0021D15401334E
:10118800DBB2012BF8D9FFF7E3FF0146204600F058
:10119800A8F810BDA001002070B506460C461546FB
:1011A8000846FFF7CFFF08B1092D00D970BD044BE1
:1011B8001D55FFF7CDFF0146304600F092F8F5E7E0
:1011C800A001002038B505460C460846FFF7BAFFCF
:1011D80000B938BD08490B5D0133084A82FB030298
:1011E800921002EB820250001A1AD2B20A55214616
:1011F8002846FFF7D1FFECE7A00100206766666686
:1012080010B50446012281780078FFF711FC00220E
:10121800A1782078FFF70CFC10BD10B50446012218
:10122800C1780078FFF704FC0022E1782078FFF706
:10123800FFFB10BD70B58AB004460025CDF82350D9
:1012480002788DF8202043788DF8213001268DF81A
:10125800226002238DF82430CDF81B508DF8182019
:1012680081788DF819108DF81A608DF81C30CDF83A
:1012780013508DF81020C1788DF811108DF8126078
:101288008DF81430CDF80B508DF8082002798DF8C0
:1012980009208DF80A608DF80C308DF804608DF8FF
:1012A800055001A8FFF7EEFA08A8FFF70BFC06A8FF
:1012B800FFF708FC04A8FFF705FC02A8FFF702FCEB
:1012C8002A46A1782078FFF7B3FB2A46E1782078F0
:1012D800FFF7AEFB324621792078FFF7A9FB0AB069
:1012E80070BD70B505460E4600240EE0C4F10F022D
:1012F80046FA02F202F0010269782878FFF798FBB3
:101308002846FFF77DFF0134E4B20F2CEED92846BA
:10131800FFF783FF70BD0000044B9B681BB100EB17
:101328005300B0FBF3F31846704700BFB401002028
:10133800884203D3904203D90020704700207047A9
:10134800012070470023054A1370054A1370054AA7
:10135800137053709370D370704700BFC40100209E
:10136800AC010020B001002038B5FFF764FA05464B
:10137800054C2068FFF763FA2560FFF7CDFF034BA4
:101388001860186838BD00BFA8010020A40100201B
:10139800B8B10346B9B1C2B130B4047840786040FE
:1013A800FF2802D0002030BC70479878DD7868406C
:1013B800FF2801D00020F6E70C709B7813700120FD
:1013C800F1E70020704700207047002070470000B8
:1013D80010B582B0364B1B785BB1FFF7C5FF0446EA
:1013E800334B1B78012B0DD0022B19D0FFF7AAFF26
:1013F80006E0FFF720FA2F4B18602D4B01221A70D8
:1014080002B010BD4FF47A5242F6E061FFF790FF48
:1014180018B1274B02221A70F2E7FFF793FFEFE7A4
:101428004FF4AF624FF46171FFF782FFB0B1224B06
:101438001B78D90803F0070301229A401F48435C30
:1014480023EA020343541C4A13780133DBB21370B6
:10145800202B1AD0164B02221A70D1E740F6282208
:101468004FF4E1612046FFF763FF58B1124B1B7838
:10147800D90803F0070301229A401048435C13433C
:101488004354E0E7FFF75EFFBAE70DF106020DF1FE
:1014980007010A48FFF77CFF38B1094BDB6823B125
:1014A8009DF806109DF807009847FFF74BFFA7E740
:1014B800C4010020A8010020AC010020B0010020D8
:1014C800B401002008B5FFF7B6F9044B1860044BC7
:1014D80000221A60FFF736FF08BD00BFA8010020F0
:1014E800A401002008B5FFF7EDFF08BDF8B110B55D
:1014F8000F4C0FC884E80F000AB90122A260FFF759
:10150800E1FFFFF749FB0A4C61782078FFF7EEFB13
:1015180001212078FFF754FB21780648FFF77EFB6E
:101528002078FFF741FB2079FFF75EFA10BD70477E
:10153800B4010020D91300080023022B4DD810B4A1
:1015480011E003EB4301364A0A445278824211D132
:10155800334A0A44927882420CD1012023E00133B5
:10156800DBB2022B16D81C4603EB43022C498A5CDB
:101578008242E6D02A4A125D8242F0D1284A2244A9
:10158800D2788242EBD1264A1444A2798242E6D12B
:10159800012008E0224B1B78834206D0204B9B7821
:1015A80083420CD0002010BC70471D4B1B7983422E
:1015B800F4D11B4B1B7A8342F0D10120F3E7184B7F
:1015C8001B79834201D00020EDE7154B9B798342BC
:1015D80001D00020E7E70120E5E7114B1B788342A3
:1015E80005D00F4B9B7883420BD0002070470C4BE3
:1015F8001B798342F5D10A4B1B7A8342F1D1012032
:101608007047074B1B79834201D000207047044B79
:101618009B79834201D0002070470120704700BFAA
:10162800C8010020002201E00132D2B2022A0BD800
:101638000023022BF8D802EB420004490144C85C9D
:1016480018B10133DBB2F4E701207047C80100206C
:101658002DE9F041164601EB411100EB401505F16B
:101668001F0701F10F0801F12E04134622464146D7
:101678003846FFF744FC3E35334622464146284665
:10168800FFF73DFC33462A4639464046FFF722FC21
:1016980033462A4639462046FFF71CFCBDE8F08150
:1016A800F0B583B004460D4601EB411600EB401738
:1016B80006F12D0106F11000FFF79CFB07F13D0133
:1016C80007F12000FFF7B2FB0020FFF7CBFB04EB8C
:1016D80044040E4B1C44635D012B07D0022B01D040
:1016E80003B0F0BD4FF6E073094A02E04FF47843C7
:1016F800084A002AF4D0022101910021009107F143
:10170800260106F11900FFF7E1FCE9E7C80100200E
:10171800203600081C3600081E4B1B7803B970479A
:1017280070B503F0FF041B4B00221A701A4E307874
:101738001A4D2978FFF7B4FF307829784FF6FF72F1
:10174800FFF786FF013C032C08D8DFE804F00210FD
:10175800161C124A1378013BDBB213700E4B187833
:101768000E4B197840F2FF72FFF772FF70BD0B4AFB
:1017780013780133DBB21370F0E7074A1378013BA3
:10178800DBB21370EAE7044A13780133DBB2137053
:10179800E4E700BFD3010020D4010020D2010020DB
:1017A800034B1B7813B1034B01221A70704700BF1B
:1017B800D2010020D3010020044B1B78DBB2012B9F
:1017C80000D97047024B02221A70FAE7D2010020B2
:1017D800D3010020034B1B7813B1034B03221A706B
:1017E800704700BFD4010020D3010020044B1B78B0
:1017F800DBB2012B00D97047024B04221A70FAE7BA
:10180800D4010020D3010020014B01221A70704737
:10181800D6010020014B01221A707047D501002023
:1018280008B51C2819D008D9522813D05A280ED028
:10183800452801D1FFF7EEFF08BD082804D0182875
:10184800FAD1FFF7C7FFF7E7FFF7AAFFF4E7FFF7BB
:10185800B3FFF1E7FFF7CAFFEEE7FFF7D5FFEBE7C6
:10186800F0B585B000210BE001EB41001E4A0244AF
:101878000020D0540133DBB2022BF5D90131C9B2B3
:10188800022901D80023F7E7184F01253D70184EAB
:1018980035700024174B1C70174B1C70174B1C70AD
:1018A800174B1D702046FFF707FB0195009440F287
:1018B800FF73144A8F211F20FFF708FC03230393AB
:1018C800029301944FF6FF73009382231E22722124
:1018D8000E20FFF729FB3878317840F2FF72FFF7C6
:1018E800B7FE05B0F0BD00BFC8010020D40100203C
:1018F800D2010020D3010020D6010020D50100200C
:10190800D10100202436000870B582B0FFF7A8FF87
:10191800414B1B78002B7DD1FFF7FEFE3F4B1B7818
:10192800002BF5D03D4B00221A703D4B1B783D4AE9
:101938001278D2B203EB43033B490B449B5C002B68
:10194800E6D1374D2B78374C2278D2B203EB4303DC
:101958000B44364E3178995428782178FFF7A0FE49
:101968002878217840F2FF72FFF772FE347820461B
:10197800FFF7E2FD40B9FFF755FE88BB012C47D0C1
:1019880001222A4B1A70C3E714F1FF3018BF012057
:1019980000F0D6FA3378012B17D0012301930023E6
:1019A80000934FF6E073224A0A212320FFF78EFBAB
:1019B80040F6C410FEF75AFFFFF794FD164B1B784C
:1019C800002BA5D1FFF74CFFA2E70193002300935A
:1019D8004FF47843174A0A212320FFF777FBE7E7FC
:1019E800012301930023009340F2FF73124A0A2156
:1019F8002320FFF76BFB40F2DC50FEF737FFFFF7C1
:101A080071FD054B1B78002B82D1FFF729FF7FE77B
:101A18000222B6E702B070BDD5010020D601002031
:101A2800D4010020D2010020C8010020D1010020EB
:101A3800383600083036000840360008002301E038
:101A48000133DBB2074A12789A4209D9064AD25CB6
:101A58008242F5D1054AD25C8A42F1D10120704711
:101A680000207047E5010020E8010020080300205D
:101A7800044B186880EA403080EA504080EA401001
:101A88001860704730000020F8B5002635460EE093
:101A98000134E4B20F2C08D831462046FFF7CEFFB8
:101AA8000028F5D10135ADB2F2E70136F6B2112EB4
:101AB80001D80024EEE705B9F8BDFFF7D9FFB0FB60
:101AC800F5F705FB1705AFB20026354615E00D4BB7
:101AD8001C700D4B1E70EFE70134E4B20F2C0AD8CE
:101AE80031462046FFF7AAFF0028F5D1BD42EED0C7
:101AF8000135ADB2F0E70136F6B2112EDCD800247C
:101B0800ECE700BFE2010020E301002010B5FFF779
:101B1800AFFF204B03221A70104010D0012820D0AC
:101B280002282AD01C4907230B701C4B05221A7067
:101B380008244C705A7009248C709A700AE016496F
:101B480006230B70154A052414704B7053708B7064
:101B580007239370124B1870124B1870FFF794FFFD
:101B680010BD0D4905230B700C4A137004244C70EA
:101B7800537003248C709370ECE7074A06211170A8
:101B8800064B04241C70517003245C70917002226F
:101B98009A70DFE7E5010020E80100200803002033
:101BA800E0010020E401002010B582B00020FFF71A
:101BB80083F9012301930024009440F2FF73074A3C
:101BC80094213120FFF782FA4FF6FF737F222146D6
:101BD8009120FFF794F902B010BD00BF4836000805
:101BE80070B51546C000CC00661CC11D0130FFF75A
:101BF80001F9E11D3046FFF719F92846FFF732F9D8
:101C080070BD000010B5FFF7CFFF4FF478420B4BC3
:101C180019780B4B1878FFF7E3FF002409E04FF41D
:101C2800FC62084B195D084B185DFFF7D9FF0134BA
:101C3800E4B2064B1B78A342F1D810BDE3010020A3
:101C4800E201002008030020E8010020E50100204F
:101C580070B53E4B1D786CB23D4B1A783D4B1B78E6
:101C6800DBB23D48037003786BB9013A51B2E4B274
:101C78000F2C03D8002901DB112918DDFFF746FFD7
:101C8800FFF7C0FF70BD51B2334B1B78DBB2012B9D
:101C980007D0314B1B78DBB2022B05D0013D6CB26B
:101CA800E5E701356CB2E2E7013251B2DFE7CDB2C8
:101CB80029462046FFF7C2FE0028DFD1274B1B78B4
:101CC8009C420CD0002303F0FF0683B1244A13780A
:101CD80001331370224B1B78013BDBB21AE0214B16
:101CE8001B789D4201D00023EDE70123EBE71C4B55
:101CF8001B78013B00221649C95C1448C05CFFF7F9
:101D08006FFFE7E75A1E1149885CC8541049885C80
:101D1800C854D3B2002BF5D10C4B1C700C4B1D7062
:101D28004FF4FC6229462046FFF75AFF002EA9D03F
:101D380000F0DAF8FFF7A8FE4FF47842094B19785B
:101D4800064B1878FFF74CFF9CE700BFE80100201E
:101D580008030020E4010020E0010020E201002047
:101D6800E5010020E3010020034600B90123014AF0
:101D7800136070473000002045281CD00DD8082873
:101D880024D0182808D1164B1B78DBB2022B25D09B
:101D9800144B00221A707047704752280FD05A28E7
:101DA80008D10F4B1B78DBB2032B17D00D4B012248
:101DB8001A70704770470C4B01221A707047084B15
:101DC8001B785BB1074B02221A707047044B1B78D3
:101DD800DBB2012B02D0034B03221A70704700BFFD
:101DE800E0010020E4010020E101002010B50024FA
:101DF800074B1C7000F064F8FFF788FEFFF702FF3E
:101E0800FEF719FD034B1860034B1C6010BD00BFA3
:101E1800E1010020D8010020DC01002038B5FFF7DF
:101E2800E5FF0D4B1B78ABB90C4D2868FEF707FD95
:101E38000B4C236818442060FEF7FDFC28602368DB
:101E4800084A9342EDD9A3F57433903B2360FFF71A
:101E5800FFFEE6E738BD00BFE1010020D801002001
:101E6800DC0100208FD0030008B5054B1860054A37
:101E7800002313705370044A1370FFF777F908BDF5
:101E88002C040020280400202A04002038B5094B1F
:101E980000241C705C70084B1C70084D22462146BB
:101EA8002868FFF779F9224601212868FFF774F9B5
:101EB80038BD00BF280400202A0400202C0400207C
:101EC80038B50024064B1C70064D2246214628686A
:101ED800FFF762F9224601212868FFF75DF938BD4E
:101EE8002A0400202C04002038B5124B186800B3CF
:101EF800114A13780133DBB21370632B02D91346EE
:101F080000221A700C4D2A780C4CA4FB0232D2081D
:101F18000021FFF741F92A78A4FB0234E40804EB16
:101F280084046300D21AD2B20121024B1868FFF769
:101F380033F938BD2C0400202A040020CDCCCCCCA9
:101F4800012800D9704770B5114B1D687DB1044652
:101F5800B0FA80F149090F4A135C525C092B07D08B
:101F680001330C4A135401462846FFF72BF970BD7C
:101F78009B1A084E3354002272542846FFF70CF976
:101F8800325D2146024B1868FFF706F9EFE700BFFC
:101F98002C040020280400200123074A1370074A54
:101FA8001370074A04211170064A13700023064A69
:101FB8001370064A13707047340400203704002059
:101FC80032040020340000203604002035040020AC
:101FD8000B4B1B7863B90B4A1378DBB20A490B70B9
:101FE800137833B9134602221A70084B01221A706B
:101FF8007047044A1378013BDBB21370F5E700BF62
:102008003204002031040020380400203604002067
:102018000C4B1B7883B90C4A1378DBB20B490B7055
:102028001378DBB2022B08D0074A13780133DBB2EE
:102038001370074B01221A707047134600221A705A
:10204800F7E700BF320400203104002038040020E4
:102058003604002008B5194B1B78A3B9184B1B7818
:102068000133DBB2154A1370002316490B70164969
:102078000B701378DBB2032B00D008BDFEF7DBFB37
:10208800FFF772FEF9E70D4B1B78DBB2042BF4D196
:102098000E4B1B78DBB2012B0CD00023074A1370C0
:1020A800012208490A7008490B7009490B70094B4D
:1020B8001A70E2E7084B01221A70EEE7320400209A
:1020C80031040020340000203604002034040020AD
:1020D800350400203304002030040020F0B583B01C
:1020E80006460401C4F17D05ADB2284B53F8202003
:1020F800002302E00133DBB20246501C92F90020B3
:10210800002AF7D1A3EB830358008030C0F34F07B0
:10211800E9B97A210520FEF76DFEC4F18901C4F101
:102128007A0080B289B2FEF781FE0020FEF79AFE9F
:10213800164B53F8262001230193002300934FF6F2
:10214800FF7329463846FEF7C1FF03B0F0BD7A2178
:102158000520FEF74FFEC4F18901C4F17A0080B270
:1021680089B2FEF763FE40F2FF70FEF77BFE074B75
:1021780053F826200123019340F2FF7300930023B4
:1021880029463846FEF7A2FFDFE700BF6C36000895
:102198002DE9F04182B005460F46C0EB0033C0EB95
:1021A80083039C00A4B204F16906B6B21C4B53F831
:1021B8002020002302E00133DBB20A46511C92F9C9
:1021C8000020002AF7D1A3EB830358008030C0F326
:1021D8004F087A210520FEF70DFE04F1750104F180
:1021E800660080B289B2FEF721FEA7B140F2FF7403
:1021F8002046FEF737FE0A4B53F825206FB94FF6F5
:10220800FF7301210191009431464046FEF75EFFBD
:1022180002B0BDE8F0810024EAE70023F1E700BF3F
:102228007836000810B582B00020FEF745FE01237D
:1022380001930024009440F2FF730D4A8F211F2060
:10224800FEF744FF0BE00B4B1978C9B2A14214BF4B
:10225800002101212046FFF79BFF0134E4B2012C45
:10226800F1D90023044A1370044A137002B010BD58
:1022780060360008340400203400002035040020B3
:1022880008B5074B18780021FFF782FF054B18782F
:102298000121FFF77DFF044B00221A7008BD00BF23
:1022A80037040020340400203504002008B54628EF
:1022B80013D03D4B1B78EBB9072802D03B4B0022CB
:1022C8001A70402810D0432811D0072826D1374B40
:1022D8001B781BBBFFF7BEFE20E0334B1B78002B9F
:1022E800E7D1FFF759FE19E0FFF772FE16E0FFF796
:1022F8008FFE13E02C4B1B78DBB2042B0FD02A4B3C
:102308001B78DBB2012B46D0274B1B78DBB2022BA4
:1023180044D0254B1B78DBB2032B42D008BD4028A4
:1023280016D010D9432825D04528F7D100231E4AB6
:10233800137001221E490A701E490B701E490B704A
:102348001A4B1A70EAE70728E8D1FFF783FEE5E79A
:102358001A4A1378DBB21A490B70137843B1137811
:10236800013BDBB2154A1370134B01221A70D5E7F3
:102378000123F7E7114A1378DBB211490B70137880
:10238800013303F0010348BF5B42DBB213700A4B11
:1023980001221A70C2E700F0FFF9BFE7FFF740FA21
:1023A800BCE7FFF7E9FCB9E732040020330400205A
:1023B80034000020360400203504002034040020B6
:1023C8003704002010B582B00020FEF775FD1C4AC6
:1023D800002302E00133DBB20A46511C92F90020C7
:1023E800002AF7D1A3EB830358008030012301931F
:1023F8000024009440F2FF73114A8F21C0F34F006C
:10240800FEF764FE40F2FF7376220A218C20FEF765
:1024180076FD0BE00B4B1978C9B2A14214BF00211D
:1024280001212046FFF75AFE0134E4B2022CF1D90B
:102438000023054A1370054A137002B010BD00BF8F
:1024480050360008310400203400002036040020F3
:1024580008B5074B18780021FFF740FE054B1878A0
:102468000121FFF73BFE044B00221A7008BD00BF94
:10247800380400203104002036040020F8B5062076
:10248800FEF7C4FA294B1C78E4B2294B1B78DDB25D
:10249800284B1B78DFB2284B1B78DEB20620FEF7EC
:1024A800A3FA042C3BD8DFE804F00313202D0B001B
:1024B8001DB9CFB1FFF7CCFF16E0FFF783FF13E09C
:1024C8001DB98EB1FFF7DCFE0EE0FFF7ABFE0BE0A7
:1024D80000F0C8F9FFF7DAFC144B00221A70144B0D
:1024E80001221A70FFF76EFFF8BDFFF70DFAFFF72C
:1024F800CDFC0E4B00221A700D4B01221A70FFF70B
:1025080061FFF1E7FFF78AFCFFF7C0FC074B0022E9
:102518001A70074B01221A70FFF754FFE4E7034BC8
:1025280000221A70024B01221A70DDE732040020E3
:10253800340000203604002035040020F0B40024C4
:1025480025E00133DBB2032B1FD8C4EBC401594A81
:102558000A44D25C8242F4D1591CC4EBC402554DE2
:1025680015446A5C8242ECD19A1CC4EBC4055149FB
:1025780029448A5C8242E4D1D91C2A464D4D2A441A
:10258800525C8242DDD1012091E00134E4B2052C95
:1025980001D80023D7E7002425E00132D2B2062A69
:1025A8001FD82546C4EBC401424B0B449B5C8342B5
:1025B800F3D1631CC3EBC3033E490B449B5C8342CA
:1025C800EBD1A31CC3EBC3030B449B5C8342E4D154
:1025D8000335C5EBC5050D44AB5C8342DDD1012055
:1025E80065E00134E4B2022C01D80022D7E70024C8
:1025F80029E00133DBB2032B23D825461E46C4EB62
:10260800C4012C4A0A44D25C8242F2D1621C591C91
:10261800C2EBC202274F3A44525C8242E9D1A21C63
:10262800991CC2EBC2023A44525C8242E1D10335A2
:102638000336C5EBC5053D44AA5D8242D9D10120C8
:1026480035E00134E4B2022C01D80023D3E7032497
:1026580028E00133DBB2032B22D81E46C4EBC401A9
:10266800144A0A44D25C8242F3D1621E591CC2EB5E
:10267800C202104F3A44525C8242EAD1A21E991C0F
:10268800C2EBC2023A44525C8242E2D1E51E0336F2
:10269800C5EBC5053D44AA5D8242DAD1012006E0BA
:1026A8000134E4B2052C01D80023D4E70020F0BCA3
:1026B800704700BF3C04002010B50C46C0EBC000BA
:1026C800410089B201F11100193189B280B2FEF7D7
:1026D80091FB16211220FEF7A9FB2046FEF7C2FB4C
:1026E80010BD0000164B1B7803B9704710B503F0F6
:1026F800FF040021124B1970124B1878FFF7DCFF0A
:10270800012C0DD0022C11D00E4B1878C0B20E4BF4
:102718001B78012B10D04FF6E071FFF7CDFF10BDED
:10272800084A1378013BDBB21370EDE7054A1378CA
:102738000133DBB21370E7E74FF47841EDE700BFF0
:10274800660400203600002035000020034B1B786B
:1027580013B1034B01221A70704700BF36000020E6
:1027680066040020014B01221A707047670400209C
:10277800044B1B78DBB2052B02D8034B02221A70DC
:10278800704700BF3600002066040020014B01227C
:102798001A7070476804002008B51C280FD006D9A5
:1027A800452809D05A2809D1FFF7E2FF06E0082892
:1027B80004D1FFF7CBFF01E0FFF7E8FF08BDFFF703
:1027C800D1FFFBE770B584B000210BE0C1EBC1007D
:1027D8001D4A02440020D0540133DBB2062BF5D940
:1027E8000131C9B2052901D80023F7E7174D0323A2
:1027F8002B700024164B1C700126164B1E70164BAE
:102808001C70164B1C702046FEF756FB06230393DC
:102818000723029301944FF6FF73009386231A222D
:1028280071210F20FEF780FB0196009440F2FF73A0
:102838000B4A05212520FEF749FC28784FF47841FA
:10284800FFF73AFF04B070BD3C04002036000020BA
:10285800660400203500002067040020680400207A
:102868009436000870B582B0FFF7ACFF4C4B1B786C
:10287800002B40F09380FFF735FF4A4B1B78002B65
:10288800F4D0484B00221A700523002B0BDB464A74
:102898001278D2B2C3EBC300444901448A5C22B126
:1028A800013B5BB2F1E74FF0FF33B3F1FF3FDDD0FF
:1028B8003D4A1278D2B23E490878C3EBC3043B497B
:1028C80021448854012833D04FF6E075364A1178F0
:1028D800C1EBC1014A0092B202F1110003EBC3033C
:1028E8005C00A4B204F11C06B6B21A3291B280B2EE
:1028F800FEF780FA04F1290189B23046FEF796FA0C
:102908002846FEF7AFFA2A4B1C782046FFF716FE3A
:1029180088B9012C3DD00123254A1370224A10782A
:10292800C0B2012B37D04FF6E071FFF7C5FE9DE727
:102938004FF47845CAE714F1FF3018BF0120FFF7BC
:10294800FFFA1B4B1B78012B18D00123019300239E
:1029580000934FF6E073174A8E211320FEF7B6FB5B
:1029680040F6C410FDF782FFFEF7BCFD0C4B1B7848
:10297800002B7FF47BAFFFF725FF77E70193002358
:1029880000934FF478430C4A8E211C20FEF79EFBDF
:10299800E6E70223C0E74FF47841C6E702B070BD0E
:1029A8006804002067040020360000203C04002052
:1029B80035000020B8360008AC36000800B1704772
:1029C80008B50846FFF772FC08BD000080B58EB058
:1029D80000250C95CDF8335007238DF831300224AB
:1029E8008DF832408DF834400A95CDF82B500523E8
:1029F8008DF829308DF82A408DF82C400895CDF8AF
:102A0800235001238DF825301E4B93E803000690D0
:102A18008DF81C1004AF03F1080292E8030087E860
:102A280003006E4610330FCB86E80F00FDF7A6FFB4
:102A380021462046FDF7B8FF03212046FDF7B4FFE5
:102A480029462046FDF7B0FF0C212046FDF7ACFFD4
:102A580008A8FEF737F80CA8FEF734F80AA8FEF71E
:102A680031F83846FDF7C0FEFDF7DEFEFEF7A2F9A5
:102A780006A8FFF7F9F93046FEF738FDFFF7FEFC28
:102A8800FCE700BFC8360008014B1868704700BF54
:102A98003800002030B5141E05469BB0184605DAEC
:102AA8008B234FF0FF302B601BB030BD4FF4027307
:102AB800ADF80C300CBF234604F1FF3302930593A5
:102AC8004FF6FF7300910491ADF80E3002461E9B3D
:102AD8006946284600F072F8431CBCBF8B232B6064
:102AE800002CE1D00022009B1A70DDE707B50093A7
:102AF80013460A46014603480068FFF7CBFF03B0B8
:102B08005DF804FB380000202DE9F0478E68824606
:102B18009E420C469046994637D88A8912F4906F9F
:102B280031D00223256809696F1A656905EB4505E7
:102B380095FBF3F509F101033B449D4238BF1D465F
:102B4800530530D5294600F035FB064650B90C230D
:102B58004FF0FF30CAF80030A38943F04003A38147
:102B6800BDE8F0873A46216900F0B4FAA38923F456
:102B7800906343F08003A38126613E4426604E465D
:102B88006561ED1BA5604E4500D94E46324641466B
:102B9800206800F0AAFAA36800209B1BA3602368A2
:102BA8001E442660DCE72A4600F05EFB0646002845
:102BB800E2D12169504600F0B1FAC8E72DE9F04F9B
:102BC8009DB003938B8980461D060C4616460FD58B
:102BD8000B696BB9402100F0EDFA2060206128B93B
:102BE8000C23C8F800304FF0FF30C7E04023636182
:102BF8000023099320238DF8293030234FF0010B4F
:102C08008DF82A3037463D4615F8013B0BB1252B88
:102C18003ED1B7EB060A0BD0534632462146404612
:102C2800FFF772FF013000F0A480099B5344099319
:102C38003B78002B00F09D8000234FF0FF32CDE958
:102C48000523049307938DF853301A932F460522D2
:102C580017F8011B4F4800F02FFA049BD0B9D9068A
:102C680044BF20228DF853201A0744BF2B228DF829
:102C780053202A782A2A15D02F4600200A25079A99
:102C8800394611F8013B303B092B4DD9B8B10FE05B
:102C98002F46B8E73F4A3D46801A0BFA00F0184322
:102CA8000490D3E7039A111D12680391002A01DBEF
:102CB800079204E0524243F00203079204933B78E0
:102CC8002E2B0CD17B782A2B33D1039B02371A1D6C
:102CD8001B680392002BB8BF4FF0FF3305932E4DAE
:102CE80003223978284600F0E7F938B14023401B21
:102CF80003FA00F0049B0137034304933978062252
:102D080026487E1C8DF8281000F0D6F9002838D007
:102D1800234B13BB039B073323F0070308330393A9
:102D2800099B4B4409936DE705FB023201200F46CE
:102D3800A6E700230A25194601370593384610F8F7
:102D4800012B303A092A03D9002BC8D00591C6E7D0
:102D580005FB012101230746F0E703AB0093224658
:102D6800104B04A94046AFF30080B0F1FF3F814605
:102D7800D6D1A3895B063FF536AF09981DB0BDE8EB
:102D8800F08F03AB00932246064B04A9404600F09F
:102D980081F8EAE7E8360008EE360008F23600085F
:102DA80000000000112B00082DE9F04791461F464E
:102DB8008A680B6906469342B8BF1346C9F80030C3
:102DC80091F843200C46DDF8208012B10133C9F890
:102DD80000302368990642BFD9F800300233C9F899
:102DE8000030256815F0060507D104F1190AE368D3
:102DF800D9F800209B1AAB4229DC94F843302268AA
:102E0800003318BF012392062ED404F14302394639
:102E18003046C047013021D02368E56803F0060337
:102E2800042B18BF0025D9F800204FF0000908BF6F
:102E3800AD1AA368226908BF25EAE5759342C4BFA5
:102E48009B1AED181A344D451AD1002008E00123C9
:102E5800524639463046C047013003D14FF0FF3063
:102E6800BDE8F0870135C2E73020E11881F843005A
:102E78005A1C94F845102244023382F84310C4E7E0
:102E88000123224639463046C0470130E6D009F1D1
:102E98000109D8E72DE9F04301F1430C0C46097EFE
:102EA80085B06E291746064698460C9A00F0B380FE
:102EB80022D8632936D00AD8002900F0B9805829C9
:102EC80000F0838004F1420584F8421032E064295E
:102ED80001D06929F6D120681368050603F10401B9
:102EE8002AD51B681160002B03DA2D225B4284F877
:102EF80043206F480A2239E0732900F09D8008D8E2
:102F08006F2920D07029DDD1236843F02003236086
:102F180003E0752917D07829D4D17823654884F837
:102F2800453055E0136804F14205191D1B6811600E
:102F380084F8423001238CE01B6810F0400F1160C8
:102F480018BF1BB2CFE713682568181D1060280644
:102F580001D51B6802E06806FBD51B886F2914BFE2
:102F68000A2208225248002184F843106568002D7F
:102F7800A560C0F29580216821F004012160002B32
:102F88003DD1002D40F08E806546082A0BD123687C
:102F9800DB0708D5236962689A42DEBF302305F84B
:102FA800013C05F1FF35ACEB05032361CDF800804A
:102FB8003B4603AA21463046FFF7F6FE01304DD1C5
:102FC8004FF0FF3005B0BDE8F083394884F845106C
:102FD800136821681D1D1B6815600A060BD5CA07F2
:102FE80044BF41F0200121601BB9226822F0200271
:102FF80022601022B7E74D0648BF9BB2EFE765464F
:10300800B3FBF2F102FB1133C35C05F8013D0B463B
:103018000029F5D1B9E713682568181D61691060A2
:1030280028061B6801D5196002E06A06FBD51980DD
:10303800002365462361B9E71368191D11601D68EF
:1030480062680021284600F037F808B1401B60602C
:1030580063682361002384F84330A7E723692A467D
:1030680039463046C0470130AAD023689B0713D49D
:10307800E068039B9842B8BF1846A3E701234A4675
:1030880039463046C04701309AD00135E368039A83
:103098009B1AAB42F2DCEBE7002504F11909F5E7CE
:1030A800002BACD1037804F1420584F842306CE778
:1030B800F93600080A37000810B5C9B20244904230
:1030C800034601D1002303E01C7801308C42F6D17D
:1030D800184610BD10B5431E0A44914200D110BDD8
:1030E80011F8014B03F8014FF7E7884210B501EBDF
:1030F800020307D8421E99420AD011F8014B02F880
:10310800014FF8E78342F5D98118D21AD34200D18A
:1031180010BD13F8014D01F8014DF7E738B5054624
:10312800002943D051F8043C0C1F002BB8BFE41809
:1031380000F0D0F81E4A1368104633B96360146073
:103148002846BDE8384000F0C6B8A3420BD921682C
:103158006218934201BF1A685B6852182260636064
:103168000460EDE713465A680AB1A242FAD9196811
:103178005818A0420BD1206801445818824219609F
:10318800DED110685268014419605A60D8E702D944
:103198000C232B60D4E7206821188A4201BF1168EC
:1031A80052680918216062605C60C9E738BD00BFD9
:1031B8006C04002070B5CD1C25F0030508350C2DD6
:1031C80038BF0C25002D064601DBA94203D90C2384
:1031D8003360002070BD00F07DF8214A1468214654
:1031E80091B9204C23681BB9304600F063F8206081
:1031F8002946304600F05EF8431C24D10C233046A3
:10320800336000F068F8E4E70B685B1B18D40B2BFD
:103218000FD90B60CC18CD50304600F05CF804F1A3
:103228000B00231D20F00700C31AD3D05A42E250E6
:10323800D0E74B688C4216BF636013600C46EBE71F
:103248000C464968CCE7C41C24F00304A04205D00E
:10325800211A304600F02EF80130CFD02560DBE788
:103268006C04002070040020F8B5074614460E468A
:1032780021B9BDE8F8401146FFF79CBF22B9FFF716
:103288004DFF25462846F8BD00F026F8A0420FD28B
:1032980021463846FFF78EFF05460028F2D0314612
:1032A8002246FFF717FF31463846FFF737FFE9E7B1
:1032B8003546E7E738B50023054C05460846236040
:1032C800FDF758F8431C02D1236803B12B6038BDC1
:1032D800740400207047704751F8043C181F002BF5
:1032E800BCBF0B58C0187047537461636B2066727B
:1032F800616D653A0A000000205230203D202025EB
:103308003038580A00000000205231203D20202586
:103318003038580A00000000205232203D20202575
:103328003038580A00000000205233203D20202564
:103338003038580A0000000020523132203D202544
:103348003038580A00000000204C52203D2020252B
:103358003038580A00000000205043203D20202526
:103368003038580A0000000020505352203D2025D4
:103378003038580A000000004653522F4641523A4E
:103388000A0000002043465352203D2020253038B3
:10339800580A00002048465352203D202025303846
:1033A800580A00002044465352203D20202530383A
:1033B800580A00002041465352203D20202530382D
:1033C800580A0000204D4D464152203D20253038F6
:1033D800580A00002042464152203D20202530381E
:1033E800580A00004D6973630A000000204C522FF0
:1033F8004558435F52455455524E3D202530385864
:103408000A0000005B486172644661756C745D0A6D
:10341800000000005B4275734661756C745D0A00BC
:103428005B55736167654661756C745D0A000000E1
:10343800000000000000005F000000070007001403
:103448007F147F14242A7F2A1223130864623649C2
:103458005522500005030000001C224100004122B3
:103468001C0014083E081408083E080800503000E4
:10347800000808080808006060000020100804021E
:103488003E5149453E00427F400042615149462134
:1034980041454B311814127F1027454545393C4AA0
:1034A80049493001710905033649494936064949F0
:1034B800291E003636000000563600000814224146
:1034C80000141414141400412214080201510906AE
:1034D800324979413E7E1111117E7F494949363E74
:1034E800414141227F4141221C7F494949417F098D
:1034F8000909013E4149497A7F0808087F00417F50
:1035080041002040413F017F081422417F40404054
:10351800407F020C027F7F0408107F3E4141413EFC
:103528007F090909063E4151215E7F09192946464E
:103538004949493101017F01013F4040403F1F2077
:1035480040201F3F4038403F631408146307087049
:1035580008076151494543007F41410002040810B2
:1035680020040201020440404040400001020400DF
:1035780020545454787F48444438384444442038CC
:103588004444487F3854545418087E0901020C52A8
:1035980052523E7F0804047800447D400020404495
:1035A8003D007F1028440000417F40007C0418043F
:1035B800787C0804047838444444387C141414088B
:1035C800081414147C7C0804040848545454200437
:1035D8003E4440203C4040207C1C2040201C3C4075
:1035E80030403C44281028440C5050503C4464540B
:1035F8004C44083641410000007F0000004141363C
:103608000808082A1C080000C0F9A4B0999282F89A
:1036180080900000580000004F00000054494320EB
:1036280054414320544F4500582057494E530000F9
:103638004F2057494E5300004452415700000000A4
:10364800534E414B4500000047414D4520434F4EE6
:10365800534F4C45000000004F4E4C494E45204DFD
:103668004F4445009436000824360008A036000868
:10367800803600088836000843414E43454C000018
:10368800494E495449414C495A450000434F4E4E12
:103698004543542034000000534E414B45204741D8
:1036A8004D4500005245442057494E532100000023
:1036B80059454C4C4F572057494E532100000000A4
:1036C800010506070800000000127A0040420F00BA
:1036D800000000000600000001000000C5290008E5
:1036E800232D302B2000686C4C00656667454647E3
:1036F8000030313233343536373839414243444566
:1037080046003031323334353637383961626364D4
:03371800656600E3
:10371C0078563412A80000200000000000000000C1
:10372C0000000000010203040607080900A24A0475
:10373C0000060100030000FF00040100030000FF6D
:10374C0001000000010103FF3C000020000000000C
:10375C00000000000000000000000000000000005D
:10376C00000000000000000000000000000000004D
:10377C00000000000000000000000000000000003D
:10378C00000000000000000000000000000000002D
:10379C00000000000000000000000000000000001D
:1037AC000000000000000000000000003254769879
:040000050800010DE1
:00000001FF
